:020000040800F2
:1000000000280020690C00080D0C0008130C0008E3
:10001000190C00081F0C0008250C00080000000047
:100020000000000000000000000000002B0C000891
:10003000370C000800000000430C00084F0C0008BB
:10004000B10C0008B10C0008B10C0008B10C00089C
:10005000B10C0008B10C0008B10C0008B10C00088C
:10006000B10C0008B10C0008B10C0008B10C00087C
:10007000B10C0008B10C0008B10C0008B10C00086C
:10008000B10C0008B10C0008B10C0008B10C00085C
:10009000B10C0008B10C0008B10C0008B10C00084C
:1000A000B10C0008B10C0008B10C0008B10C00083C
:1000B000B10C0008B10C000800000000B10C0008F1
:1000C000B10C00080000000000000000B10C0008A6
:1000D00000000000B10C0008B10C00080000000096
:1000E000B10C0008B10C0008B10C000800000000C1
:1000F0000000000000000000000000000000000000
:0C01000000000000000000005FF808F1A3
:10010C0010B5054C237833B9044B13B10448AFF345
:10011C0000800123237010BD24000020000000008B
:10012C00C41A000808B5034B1BB103490348AFF3CD
:10013C00008008BD0000000028000020C41A000840
:10014C0080B500AF2C4B1B68052B14DC0122012160
:10015C002A4801F08FF800222021284801F08AF863
:10016C0001220221254801F085F8002208212348AC
:10017C0001F080F839E0204B1B68092B14DC0122BC
:10018C0010211E4801F076F8002201211B4801F0D5
:10019C0071F801220421194801F06CF800220221A7
:1001AC00164801F067F820E0134B1B680B2B0ADC98
:1001BC0001220821114801F05DF8002204210F48AA
:1001CC0001F058F811E00C4B1B680F2B0ADC0122D4
:1001DC0020210A4801F04EF800221021074801F0B6
:1001EC0049F802E0044B00221A60034B1B680133F0
:1001FC00014A136000BF80BD40000020000C01408C
:10020C0080B582B000AF78607B68092B00F2BC81AE
:10021C0001A252F823F000BF4D020008A102000811
:10022C00F5020008490300089D030008F1030008CB
:10023C004504000899040008ED0400084105000875
:10024C0000228021D34801F015F800224FF4807170
:10025C00D04801F00FF800224FF40071CD4801F0A6
:10026C0009F800224FF48061CA4801F003F800221B
:10027C004FF40061C74800F0FDFF00224FF480519D
:10028C00C44800F0F7FF01224FF40051C14800F0C0
:10029C00F1FF7AE101228021BE4800F0EBFF012240
:1002AC004FF48061BB4800F0E5FF01224FF4006180
:1002BC00B84800F0DFFF01224FF48051B54800F040
:1002CC00D9FF01224FF40051B24800F0D3FF0022B5
:1002DC004FF48071AF4800F0CDFF00224FF4007155
:1002EC00AC4800F0C7FF50E100228021A94800F083
:1002FC00C1FF00224FF48071A64800F0BBFF012221
:10030C004FF40071A34800F0B5FF00224FF4806158
:10031C00A04800F0AFFF00224FF400619D4800F0B0
:10032C00A9FF01224FF480519A4800F0A3FF00224C
:10033C004FF40051974800F09DFF26E100228021E8
:10034C00944800F097FF00224FF48071914800F020
:10035C0091FF00224FF400718E4800F08BFF0022B9
:10036C004FF480618B4800F085FF01224FF400614F
:10037C00884800F07FFF01224FF48051854800F03F
:10038C0079FF00224FF40051824800F073FFFCE02B
:10039C00012280217F4800F06DFF00224FF4807114
:1003AC007C4800F067FF00224FF40071794800F0A0
:1003BC0061FF01224FF48061764800F05BFF01225F
:1003CC004FF40061734800F055FF00224FF4805148
:1003DC00704800F04FFF00224FF400516D4800F0C0
:1003EC0049FFD2E0002280216A4800F043FF01223D
:1003FC004FF48071674800F03DFF00224FF400710C
:10040C00644800F037FF00224FF48061614800F02F
:10041C0031FF01224FF400615E4800F02BFF0022F7
:10042C004FF480515B4800F025FF00224FF400513F
:10043C00584800F01FFFA8E000228021554800F02A
:10044C0019FF01224FF48071524800F013FF002273
:10045C004FF400714F4800F00DFF00224FF4806103
:10046C004C4800F007FF00224FF40061494800F0AF
:10047C0001FF00224FF48051464800F0FBFE0022A1
:10048C004FF40051434800F0F5FE7EE0002280213D
:10049C00404800F0EFFE00224FF480713D4800F020
:1004AC00E9FE00224FF400713A4800F0E3FE01220D
:1004BC004FF48061374800F0DDFE01224FF40061FB
:1004CC00344800F0D7FE01224FF48051314800F03F
:1004DC00D1FE01224FF400512E4800F0CBFE54E027
:1004EC00002280212B4800F0C5FE00224FF48071C1
:1004FC00284800F0BFFE00224FF40071254800F0A0
:10050C00B9FE00224FF48061224800F0B3FE0022B5
:10051C004FF400611F4800F0ADFE00224FF48051F3
:10052C001C4800F0A7FE00224FF40051194800F0BF
:10053C00A1FE2AE000228021164800F09BFE00223A
:10054C004FF48071134800F095FE00224FF40071B7
:10055C00104800F08FFE00224FF480610D4800F02F
:10056C0089FE01224FF400610A4800F083FE00224C
:10057C004FF48051074800F07DFE00224FF40051EB
:10058C00044800F077FE00E000BF00BF0837BD460E
:10059C0080BD00BF0008014080B582B000AF78601C
:1005AC007B68092B00F2C88101A252F823F000BF2E
:1005BC00E50500083B06000891060008E706000860
:1005CC003D07000893070008E90700083F080008EA
:1005DC0095080008EB08000800224FF40071D5487C
:1005EC0000F048FE00224FF48061D24800F042FE39
:1005FC0000224FF40061CF4800F03CFE00224FF483
:10060C008051CC4800F036FE00224FF40051C9480E
:10061C0000F030FE00224FF48041C64800F02AFE64
:10062C0001224FF40041C34800F024FE85E1012271
:10063C004FF40071BF4800F01DFE01224FF48051B1
:10064C00BC4800F017FE01224FF40051B94800F0ED
:10065C0011FE01224FF48041B64800F00BFE01223E
:10066C004FF40041B34800F005FE00224FF48061C6
:10067C00B04800F0FFFD00224FF40061AD4800F0DF
:10068C00F9FD5AE100224FF40071AA4800F0F2FD86
:10069C0000224FF48061A74800F0ECFD01224FF4DA
:1006AC000061A44800F0E6FD00224FF48051A148FF
:1006BC0000F0E0FD00224FF400519E4800F0DAFDFE
:1006CC0001224FF480419B4800F0D4FD00224FF4EE
:1006DC000041984800F0CEFD2FE100224FF400714C
:1006EC00944800F0C7FD00224FF48061914800F05F
:1006FC00C1FD00224FF400618E4800F0BBFD0022CA
:10070C004FF480518B4800F0B5FD01224FF400519D
:10071C00884800F0AFFD01224FF48041854800F07D
:10072C00A9FD00224FF40041824800F0A3FD04E132
:10073C0001224FF400717F4800F09CFD00224FF421
:10074C0080617C4800F096FD00224FF400617948EE
:10075C0000F090FD01224FF48051764800F08AFDA4
:10076C0001224FF40051734800F084FD00224FF435
:10077C008041704800F07EFD00224FF400416D482E
:10078C0000F078FDD9E000224FF40071694800F0C8
:10079C0071FD01224FF48061664800F06BFD002270
:1007AC004FF40061634800F065FD00224FF4805166
:1007BC00604800F05FFD01224FF400515D4800F0ED
:1007CC0059FD00224FF480415A4800F053FD00229D
:1007DC004FF40041574800F04DFDAEE000224FF4BD
:1007EC000071544800F046FD01224FF480615148DD
:1007FC0000F040FD00224FF400614E4800F03AFD3D
:10080C0000224FF480514B4800F034FD00224FF48D
:10081C000051484800F02EFD00224FF4804145481D
:10082C0000F028FD00224FF40041424800F022FD68
:10083C0083E000224FF400713E4800F01BFD0022C3
:10084C004FF480613B4800F015FD00224FF400612D
:10085C00384800F00FFD01224FF48051354800F06C
:10086C0009FD01224FF40051324800F003FD012232
:10087C004FF480412F4800F0FDFC01224FF4004161
:10088C002C4800F0F7FC58E000224FF40071294886
:10089C0000F0F0FC00224FF48061264800F0EAFCE6
:1008AC0000224FF40061234800F0E4FC00224FF4D6
:1008BC008051204800F0DEFC00224FF400511D480E
:1008CC0000F0D8FC00224FF480411A4800F0D2FC12
:1008DC0000224FF40041174800F0CCFC2DE0002220
:1008EC004FF40071134800F0C5FC00224FF48061F6
:1008FC00104800F0BFFC00224FF400610D4800F0DE
:10090C00B9FC00224FF480510A4800F0B3FC0122DC
:10091C004FF40051074800F0ADFC00224FF4804129
:10092C00044800F0A7FC00224FF40041014800F0FD
:10093C00A1FC02E0000C014000BF00BF0837BD461F
:10094C0080BD00BF80B500AF1E4B1B68002B08DBC1
:10095C001C4B1B685A1E1B490A601846FFF750FCBB
:10096C0018E0194B1B68002B08DB174B1B685A1E31
:10097C0015490A601846FFF743FC0BE0134B1B6844
:10098C00002B07DB114B1B685A1E10490A601846D6
:10099C00FFF736FC0B4B1B68002B10DA0A4B1B685D
:1009AC00002B0CDA094B1B68002B08DA054B0522CF
:1009BC001A60054B05221A60044B03221A6000BF13
:1009CC0080BD00BF000000200800002004000020B3
:1009DC0080B500AF1E4B1B68002B08DB1C4B1B6843
:1009EC005A1E1B490A601846FFF7D6FD18E0194B32
:1009FC001B68002B08DB174B1B685A1E15490A6035
:100A0C001846FFF7C9FD0BE0134B1B68002B07DBE7
:100A1C00114B1B685A1E10490A601846FFF7BCFDA3
:100A2C000D4B1B68002B10DA094B1B68002B0CDAE2
:100A3C00084B1B68002B08DA074B05221A60044B85
:100A4C0005221A60034B03221A6000BF80BD00BF51
:100A5C0014000020100000200C00002080B500AF16
:100A6C0000F022F900F00DF800F04CF8FFF768FBED
:100A7C00FFF768FFFFF7ACFF44F6206000F076F953
:100A8C00F4E780B590B000AF07F1180328220021DD
:100A9C00184601F009F83B1D00221A605A609A6052
:100AAC00DA601A610223BB610123BB621023FB6273
:100ABC0002237B630023BB634FF46013FB6307F1DA
:100ACC001803184600F0EEFB0346002B01D000F093
:100ADC006FF80F237B600223BB60A023FB604FF4F5
:100AEC0080633B6100237B613B1D0221184600F0B3
:100AFC005BFE0346002B01D000F05AF800BF4037D4
:100B0C00BD4680BD80B586B000AF07F1080300225A
:100B1C001A605A609A60DA60224B9B69214A43F052
:100B2C00040393611F4B9B6903F004037B607B6898
:100B3C001C4B9B691B4A43F008039361194B9B693F
:100B4C0003F008033B603B6800224FF680711648A7
:100B5C0000F090FB00224FF63F61144800F08AFB36
:100B6C004FF68073BB600123FB6000233B610223C3
:100B7C007B6107F1080319460B4800F0FFF94FF6AB
:100B8C003F63BB600123FB6000233B6102237B615D
:100B9C0007F108031946054800F0F0F900BF1837B3
:100BAC00BD4680BD0010024000080140000C014011
:100BBC0080B400AF72B600BFFEE7000080B483B013
:100BCC0000AF0E4B9B690D4A43F0010393610B4B35
:100BDC009B6903F001037B607B68084BDB69074A68
:100BEC0043F08053D361054BDB6903F080533B60CA
:100BFC003B6800BF0C37BD4680BC704700100240FC
:100C0C0080B400AFFEE780B400AFFEE780B400AF65
:100C1C00FEE780B400AFFEE780B400AFFEE780B41F
:100C2C0000AF00BFBD4680BC704780B400AF00BFB2
:100C3C00BD4680BC704780B400AF00BFBD4680BCD1
:100C4C00704780B500AF00F075F800BF80BD80B470
:100C5C0000AF00BFBD4680BC70470000FFF7F7FF38
:100C6C000B480C490C4A002302E0D458C4500433FE
:100C7C00C4188C42F9D3094A094C002301E01360D3
:100C8C000432A242FBD300F0EBFEFFF7E7FE704705
:100C9C000000002024000020081B00082400002075
:100CAC0048000020FEE7000080B500AF084B1B6831
:100CBC00074A43F010031360032000F02BF90F20B8
:100CCC0000F008F8FFF77AFF0023184680BD00BF3C
:100CDC000020024080B582B000AF7860124B1A68D9
:100CEC00124B1B7819464FF47A73B3FBF1F3B2FB3A
:100CFC00F3F3184600F035F90346002B01D001231D
:100D0C000EE07B680F2B0AD8002279684FF0FF3079
:100D1C0000F00BF9064A7B681360002300E0012306
:100D2C0018460837BD4680BD180000202000002062
:100D3C001C00002080B400AF054B1B781A46054BF5
:100D4C001B681344034A136000BFBD4680BC704748
:100D5C00200000204400002080B400AF024B1B6830
:100D6C001846BD4680BC70474400002080B584B056
:100D7C0000AF7860FFF7F0FFB8607B68FB60FB6842
:100D8C00B3F1FF3F05D00A4B1B781A46FB6813449E
:100D9C00FB6000BFFFF7E0FF0246BB68D31AFA689E
:100DAC009A42F7D800BF00BF1037BD4680BD00BFC8
:100DBC002000002080B485B000AF78607B6803F021
:100DCC000703FB600C4BDB68BB60BA684FF6FF0394
:100DDC001340BB60FB681A02BB68134343F0BF634C
:100DEC0043F40033BB60044ABB68D36000BF1437C4
:100DFC00BD4680BC704700BF00ED00E080B400AF82
:100E0C00044BDB681B0A03F007031846BD4680BC85
:100E1C00704700BF00ED00E080B483B000AF034624
:100E2C003960FB7197F90730002B0ADB3B68DAB2AB
:100E3C000C4997F907301201D2B20B4483F8002306
:100E4C000AE03B68DAB20849FB7903F00F03043B74
:100E5C001201D2B20B441A7600BF0C37BD4680BCCF
:100E6C00704700BF00E100E000ED00E080B489B005
:100E7C0000AFF860B9607A60FB6803F00703FB61B0
:100E8C00FB69C3F10703042B28BF0423BB61FB6977
:100E9C000433062B02D9FB69033B00E000237B6182
:100EAC004FF0FF32BB6902FA03F3DA43BB681A4016
:100EBC007B699A404FF0FF317B6901FA03F3D94308
:100ECC007B680B40134318462437BD4680BC7047E3
:100EDC0080B582B000AF78607B68013BB3F1807F56
:100EEC0001D301230FE00A4A7B68013B53600F21B9
:100EFC004FF0FF30FFF790FF054B00229A60044B38
:100F0C0007221A60002318460837BD4680BD00BF73
:100F1C0010E000E080B582B000AF78607868FFF731
:100F2C0049FF00BF0837BD4680BD80B586B000AF15
:100F3C000346B9607A60FB7300237B61FFF75EFFA9
:100F4C0078617A68B9687869FFF790FF024697F97B
:100F5C000F3011461846FFF75FFF00BF1837BD462C
:100F6C0080BD80B582B000AF78607868FFF7B0FFC5
:100F7C00034618460837BD4680BD000080B48BB0D0
:100F8C0000AF7860396000237B6200233B6261E133
:100F9C0001227B6A02FA03F3FB613B681B68FA6966
:100FAC001340BB61BA69FB699A4240F050813B68BF
:100FBC005B68974A93425ED0954A934275D8954A9E
:100FCC00934258D0934A93426FD8934A934252D04B
:100FDC00914A934269D8914A93424CD08F4A93429A
:100FEC0063D88F4A934246D08D4A93425DD8122BD8
:100FFC002AD8122B59D801A252F823F083100008DA
:10100C005D1000086F100008B1100008B710000840
:10101C00B7100008B7100008B7100008B710000888
:10102C00B7100008B7100008B7100008B710000878
:10103C00B7100008B7100008B7100008B710000868
:10104C006510000879100008764A934213D02CE002
:10105C003B68DB683B6229E03B68DB6804333B623E
:10106C0024E03B68DB6808333B621FE03B68DB68CD
:10107C000C333B621AE03B689B68002B02D10423C3
:10108C003B6213E03B689B68012B05D108233B6254
:10109C007B68FA691A6109E008233B627B68FA698C
:1010AC005A6103E000233B6200E000BFBB69FF2BE9
:1010BC0001D87B6801E07B6804337B61BB69FF2B43
:1010CC0002D87B6A9B0002E07B6A083B9B003B6179
:1010DC007B691A680F213B6901FA03F3DB431A4061
:1010EC00396A3B6901FA03F31A437B691A603B685E
:1010FC005B6803F08053002B00F0A9804A4B9B697E
:10110C00494A43F001039361474B9B6903F0010388
:10111C00BB60BB68454A7B6A9B08023352F823309C
:10112C00FB607B6A03F003039B000F2202FA03F3BC
:10113C00DB43FA681340FB607B683D4A93420DD059
:10114C007B683C4A934207D07B683B4A934201D16F
:10115C00022304E0032302E0012300E000237A6A67
:10116C0002F0030292009340FA681343FB602F498C
:10117C007B6A9B080233FA6841F823203B685B6862
:10118C0003F48013002B06D02C4B9A682B49BB69B7
:10119C0013438B6006E0294B9A68BB69DB432749F4
:1011AC0013408B603B685B6803F40013002B06D084
:1011BC00224BDA682149BB691343CB6006E01F4B15
:1011CC00DA68BB69DB431D491340CB603B685B6845
:1011DC0003F40033002B06D0184B5A681749BB692F
:1011EC0013434B6006E0154B5A68BB69DB4313494C
:1011FC0013404B603B685B6803F48033002B1FD0BB
:10120C000E4B1A680D49BB6913430B601FE000BFFE
:10121C0000003210000031100000221000002110DC
:10122C0000001210000011100010024000000140DC
:10123C0000080140000C0140001001400004014076
:10124C000B4B1A68BB69DB43094913400B607B6A83
:10125C0001337B623B681A687B6A22FA03F3002B2A
:10126C007FF496AE00BF00BF2C37BD4680BC7047E4
:10127C000004014080B483B000AF78600B467B80E3
:10128C0013467B707B78002B03D07A887B681A61BD
:10129C0003E07B881A047B681A6100BF0C37BD46DB
:1012AC0080BC704780B586B000AF78607B68002B3F
:1012BC0001D1012372E27B681B6803F00103002B50
:1012CC0000F08780924B5B6803F00C03042B0CD06E
:1012DC008F4B5B6803F00C03082B12D18C4B5B68B3
:1012EC0003F48033B3F5803F0BD1894B1B6803F4B7
:1012FC000033002B6CD07B685B68002B68D101231A
:10130C004CE27B685B68B3F5803F06D1804B1B6871
:10131C007F4A43F4803313602EE07B685B68002BBC
:10132C000CD17B4B1B687A4A23F480331360784BC7
:10133C001B68774A23F4802313601DE07B685B688D
:10134C00B3F5A02F0CD1724B1B68714A43F4802368
:10135C0013606F4B1B686E4A43F4803313600BE0D1
:10136C006B4B1B686A4A23F480331360684B1B6811
:10137C00674A23F4802313607B685B68002B13D0CF
:10138C00FFF7EAFC386108E0FFF7E6FC02463B6930
:10139C00D31A642B01D9032300E25D4B1B6803F4C1
:1013AC000033002BF0D014E0FFF7D6FC386108E0D6
:1013BC00FFF7D2FC02463B69D31A642B01D90323F5
:1013CC00ECE1534B1B6803F40033002BF0D100E02D
:1013DC0000BF7B681B6803F00203002B63D04C4BEF
:1013EC005B6803F00C03002B0BD0494B5B6803F0DC
:1013FC000C03082B1CD1464B5B6803F48033002B89
:10140C0016D1434B1B6803F00203002B05D07B68FD
:10141C001B69012B01D00123C0E13D4B1B6823F05C
:10142C00F8027B685B69DB00394913430B603AE0D7
:10143C007B681B69002B20D0364B01221A60FFF70A
:10144C008BFC386108E0FFF787FC02463B69D31A36
:10145C00022B01D90323A1E12D4B1B6803F00203DE
:10146C00002BF0D02A4B1B6823F0F8027B685B69D9
:10147C00DB00274913430B6015E0264B00221A6052
:10148C00FFF76AFC386108E0FFF766FC02463B692F
:10149C00D31A022B01D9032380E11D4B1B6803F0E7
:1014AC000203002BF0D17B681B6803F00803002BB0
:1014BC003AD07B689B69002B19D0174B01221A601C
:1014CC00FFF74AFC386108E0FFF746FC02463B692F
:1014DC00D31A022B01D9032360E10D4B5B6A03F095
:1014EC000203002BF0D0012000F09CFA1CE00A4B08
:1014FC0000221A60FFF730FC38610FE0FFF72CFC7C
:10150C0002463B69D31A022B08D9032346E100BFDC
:10151C00001002400000424280044242924B5B6A3F
:10152C0003F00203002BE9D17B681B6803F0040372
:10153C00002B00F0A6800023FB758B4BDB6903F0BE
:10154C008053002B0DD1884BDB69874A43F08053C5
:10155C00D361854BDB6903F08053BB60BB6801230F
:10156C00FB75824B1B6803F48073002B18D17F4BE7
:10157C001B687E4A43F480731360FFF7EDFB386100
:10158C0008E0FFF7E9FB02463B69D31A642B01D94B
:10159C00032303E1754B1B6803F48073002BF0D01D
:1015AC007B68DB68012B06D16F4B1B6A6E4A43F0DC
:1015BC00010313622DE07B68DB68002B0CD16A4BB6
:1015CC001B6A694A23F001031362674B1B6A664A64
:1015DC0023F0040313621CE07B68DB68052B0CD141
:1015EC00614B1B6A604A43F0040313625E4B1B6A37
:1015FC005D4A43F0010313620BE05B4B1B6A5A4AD2
:10160C0023F001031362584B1B6A574A23F004035F
:10161C0013627B68DB68002B15D0FFF79DFB3861EC
:10162C000AE0FFF799FB02463B69D31A41F2883274
:10163C00934201D90323B1E04B4B1B6A03F0020325
:10164C00002BEED014E0FFF787FB38610AE0FFF7C0
:10165C0083FB02463B69D31A41F28832934201D98B
:10166C0003239BE0404B1B6A03F00203002BEED1DB
:10167C00FB7D012B05D13C4BDB693B4A23F08053AE
:10168C00D3617B68DB69002B00F08780364B5B688D
:10169C0003F00C03082B61D07B68DB69022B46D16D
:1016AC00334B00221A60FFF757FB386108E0FFF755
:1016BC0053FB02463B69D31A022B01D903236DE07D
:1016CC00294B1B6803F00073002BF0D17B681B6A5D
:1016DC00B3F5803F08D1244B5B6823F400327B6860
:1016EC009B68214913434B601F4B5B6823F47412B6
:1016FC007B68196A7B685B6A0B431B4913434B601D
:10170C001B4B01221A60FFF727FB386108E0FFF73B
:10171C0023FB02463B69D31A022B01D903233DE07C
:10172C00114B1B6803F00073002BF0D035E0104B0D
:10173C0000221A60FFF710FB386108E0FFF70CFB82
:10174C0002463B69D31A022B01D9032326E0064B30
:10175C001B6803F00073002BF0D11EE07B68DB6983
:10176C00012B07D1012319E000100240007000404A
:10177C00600042420B4B5B68FB60FB6803F48032F9
:10178C007B681B6A9A4206D1FB6803F470127B6873
:10179C005B6A9A4201D0012300E0002318461837F7
:1017AC00BD4680BD0010024080B584B000AF7860AB
:1017BC0039607B68002B01D10123D0E06A4B1B6898
:1017CC0003F007033A689A4210D9674B1B6823F061
:1017DC00070265493B6813430B60634B1B6803F0BE
:1017EC0007033A689A4201D00123B8E07B681B6872
:1017FC0003F00203002B20D07B681B6803F004036A
:10180C00002B05D0594B5B68584A43F4E063536096
:10181C007B681B6803F00803002B05D0534B5B68F7
:10182C00524A43F460535360504B5B6823F0F00210
:10183C007B689B684D4913434B607B681B6803F0C6
:10184C000103002B40D07B685B68012B07D1474B11
:10185C001B6803F40033002B15D101237FE07B6858
:10186C005B68022B07D1414B1B6803F00073002B04
:10187C0009D1012373E03D4B1B6803F00203002BDD
:10188C0001D101236BE0394B5B6823F003027B68C9
:10189C005B68364913434B60FFF75EFAF8600AE069
:1018AC00FFF75AFA0246FB68D31A41F28832934288
:1018BC0001D9032353E02D4B5B6803F00C027B68CA
:1018CC005B689B009A42EBD1274B1B6803F0070324
:1018DC003A689A4210D2244B1B6823F00702224923
:1018EC003B6813430B60204B1B6803F007033A68FB
:1018FC009A4201D0012332E07B681B6803F0040399
:10190C00002B08D0194B5B6823F4E0627B68DB6822
:10191C00164913434B607B681B6803F00803002BCC
:10192C0009D0124B5B6823F460527B681B69DB00A7
:10193C000E4913434B6000F021F802460B4B5B68D9
:10194C001B0903F00F030A49CB5C22FA03F3094A83
:10195C001360094B1B681846FFF7BCF900231846A7
:10196C001037BD4680BD00BF002002400010024071
:10197C00DC1A0008180000201C00002080B487B07E
:10198C0000AF0023FB600023BB6000237B610023BE
:10199C007B6000233B611E4B5B68FB60FB6803F0C4
:1019AC000C03042B02D0082B03D027E0194B3B610E
:1019BC0027E0FB689B0C03F00F03174AD35C7B609A
:1019CC00FB6803F48033002B10D0114B5B685B0C6D
:1019DC0003F00103114AD35CBB607B680D4A03FB27
:1019EC0002F2BB68B2FBF3F37B6104E07B680C4A48
:1019FC0002FB03F37B617B693B6102E0054B3B61BE
:101A0C0000BF3B6918461C37BD4680BC704700BF01
:101A1C000010024000127A00EC1A0008FC1A0008B0
:101A2C0000093D0080B485B000AF78600A4B1B689C
:101A3C000A4AA2FB03235B0A7A6802FB03F3FB60EE
:101A4C0000BFFB685A1EFA60002BF9D100BF00BF23
:101A5C001437BD4680BC704718000020D34D62106F
:101A6C0070B500260C4D0D4C641BA410A64209D178
:101A7C0000F022F800260A4D0A4C641BA410A64262
:101A8C0005D170BD55F8043B98470136EEE755F883
:101A9C00043B98470136F2E7001B0008001B0008C6
:101AAC00001B0008041B000803460244934200D1AB
:101ABC00704703F8011BF9E7F8B500BFF8BC08BC88
:101ACC009E467047F8B500BFF8BC08BC9E467047F0
:101ADC0000000000000000000102030406070809D2
:101AEC0002030405060708090A0B0C0D0E0F101053
:041AFC0001020000E3
:041B000031010008A7
:041B04000D010008C7
:101B080005000000030000000500000005000000BB
:101B1800030000000500000000127A001000000019
:041B280001000000B8
:0400000508000C697A
:00000001FF
